:020000040800F2
:10000000A0800020C5020008CD020008CF02000831
:10001000D1020008D3020008D50200080000000049
:100020000000000000000000000000002D02000899
:10003000D90200080000000071020008C911000880
:10004000DF020008DF020008DF020008DF0200080C
:10005000DF020008DF020008DF020008DF020008FC
:10006000DF020008DF020008DF020008DF020008EC
:10007000DF020008DF020008DF020008DF020008DC
:10008000DF020008DF020008DF020008DF020008CC
:10009000DF020008DF020008DF020008DF020008BC
:1000A000DF020008DF020008DF020008DF020008AC
:1000B000DF020008DF02000869120008DF02000802
:1000C000DF020008DF020008DF020008DF0200088C
:1000D000DF02000811160008DF020008DF02000836
:1000E00009080008DF020008DF0200080000000025
:1000F0000000000000000000000000000000000000
:100100000000000000000000DF020008DF0200081D
:10011000DF020008DF020008DF020008DF0200083B
:10012000DF020008DF020008DF020008DF0200082B
:10013000DF020008DF020008DF020008DF0200081B
:10014000DF020008DF020008DF020008DF0200080B
:1001500000F002F800F05AF80AA090E8000C82447F
:100160008344AAF10107DA4501D100F04FF8AFF25C
:10017000090EBAE80F0013F0010F18BFFB1A43F085
:100180000103184770460000904600000A444FF0F3
:10019000000C10F8013B13F0070408BF10F8014BE6
:1001A0001D1108BF10F8015B641E05D010F8016B2B
:1001B000641E01F8016BF9D113F0080F1EBF10F88F
:1001C000014BAD1C0C1B09D16D1E58BF01F801CBB2
:1001D000FAD505E014F8016B01F8016B6D1EF9D535
:1001E0009142D6D37047000000230024002500264A
:1001F000103A28BF78C1FBD8520728BF30C148BF8A
:100200000B6070471FB51FBD10B510BD00F03DF964
:100210001146FFF7F7FF01F08FFC00F05BF903B424
:10022000FFF7F2FF03BC00F063F90000224B1968EE
:100230000868B0E8F00F80F30988BFF36F8F4FF0C4
:10024000000080F311884EF00D0E70470000000092
:1002500006480068006880F3088862B661B6BFF39C
:100260004F8FBFF36F8F00DF00BF00BF08ED00E0CE
:10027000EFF30980BFF36F8F0F4B1A6820E9F00F7F
:10028000106008B54FF0A00080F31188BFF34F8FC6
:10029000BFF36F8F02F0F4FD4FF0000080F3118880
:1002A000BDE8084019680868B0E8F00F80F30988D5
:1002B000BFF36F8F704700BFFC010020EFF3058094
:1002C000704700000948804709480047FEE7FEE7FD
:1002D000FEE7FEE7FEE7FEE7FEE7FEE7FEE7FEE7F6
:1002E00004480549054A064B70470000FD11000807
:1002F00051010008A07A0020A0800020A07C0020EE
:10030000A07C0020032A40F2308010F0030C00F0A3
:10031000158011F8013BBCF1020F624498BF11F83F
:1003200001CB00F8013B38BF11F8013BA2F10402F8
:1003300098BF00F801CB38BF00F8013B11F0030370
:1003400000F04A80083AC0F0088051F8043B083AAF
:1003500051F804CBA0E80810F5E7121D5CBF51F876
:10036000043B40F8043BAFF30080D20724BF11F8F0
:10037000013B11F801CB48BF11F8012B24BF00F855
:10038000013B00F801CB48BF00F8012B70474FF04C
:1003900000020429C0F0128010F0030C00F050801D
:1003A000CCF1040CBCF1020F18BF00F8012BA8BF60
:1003B00020F8022BA1EB0C0100F042B85FEAC17CEF
:1003C00024BF00F8012B00F8012B48BF00F8012BD7
:1003D000704770477047704710B5203AC0F00B80E7
:1003E000B1E81850203AA0E81850B1E81850A0E839
:1003F0001850BFF4F5AF5FEA027C24BFB1E8185093
:10040000A0E8185044BF18C918C0BDE810405FEA02
:10041000827C24BF51F8043B40F8043B08BF70477E
:10042000D20728BF31F8023B48BF11F8012B28BF83
:1004300020F8023B48BF00F8012B70474FF0000244
:1004400000B5134694469646203922BFA0E80C50CA
:10045000A0E80C50B1F12001BFF4F7AF090728BFA5
:10046000A0E80C5048BF0CC05DF804EB890028BF21
:1004700040F8042B08BF704748BF20F8022B11F04A
:10048000804F18BF00F8012B7047754600F02CF81C
:10049000AE4605006946534620F00700854618B071
:1004A00020B5FFF71DFFBDE820404FF000064FF0DC
:1004B00000074FF000084FF0000B21F00701AC4699
:1004C000ACE8C009ACE8C009ACE8C009ACE8C009B8
:1004D0008D46704710B50446AFF300802046BDE856
:1004E0001040FFF79CBE000000487047407A002093
:1004F00001491820ABBEFEE726000200704721B17B
:10050000826842F00102826003E0826822F0010208
:1005100082607047014600208A6802F004020AB136
:10052000012000E0002070470146C86C80B270478F
:100530000246002013680B400BB1012000E00020B0
:100540007047014600208A6802F008020AB10120C3
:1005500000E000207047000030B502460020002374
:1005600050680F4C20400D790C6844EA0524204364
:10057000506090680B4C2040D1E902542C434D79D7
:1005800044EA450420439060D06A20F470000C7C5B
:10059000641EE4B2234340EA0350D06230BD000041
:1005A000FFFEF0FFFDF7F1FFF0B504460D46002019
:1005B0000021092D11DDE068A5F10A0606EB4607CA
:1005C000072606FA07F18843A5F10A0606EB460658
:1005D00003FA06F10843E0600CE0206905EB4507EB
:1005E000072606FA07F1884305EB450603FA06F1EC
:1005F00008432061072A0FDA606B561E06EB860758
:100600001F2606FA07F18843561E06EB860605FAF2
:1006100006F10843606322E00D2A0FDA206BD61F33
:1006200006EB86071F2606FA07F18843D61F06EB5E
:10063000860605FA06F10843206310E0E06AA2F19D
:100640000D0606EB86071F2606FA07F18843A2F17E
:100650000D0606EB860605FA06F10843E062F0BDDA
:10066000816841F008018160704721B1826842F4DD
:10067000A002826003E0826822F4A00282607047D8
:10068000816841F0040181607047002101600171BF
:1006900041718160C16001210174704701200C210A
:1006A000084A9268CA4002F001020AB9022007E033
:1006B0000D21044A9268CA4002F0010202B90320E7
:1006C000C0B27047000C014010B5002303220C217A
:1006D000044800F073F9002303220D21014800F0C3
:1006E0006DF910BD000C014070B54AF2010580EAB9
:1006F000010444F47F4440F0FF0604EA06000022AF
:100700000BE000F00103044600EBD476C6F34F0083
:1007100013B14AF201046040521C082AF1D370BDA3
:1007200030B502460B46FF20002111E0545C6040CA
:1007300000240AE000F0800525B1312585EA400556
:10074000E8B201E04506280E641C082CF2DB491CC7
:100750009942EBDB30BD00000EB50121284800F0C6
:1007600069F90121264800F065F92648806940F0C2
:10077000010024498861002303220E21204800F053
:100780001DF9002303220D211D4800F017F90A204E
:100790008DF8080000208DF809008DF80A0001206E
:1007A0008DF80B0002A800F0A3FA0D21022000F042
:1007B00099F80E21022000F095F84FF4C040009007
:1007C00000208DF804000C208DF8050001208DF824
:1007D0000600684600F03CF8282000280DDB00BF2A
:1007E00000BF00F01F02012191404209920002F176
:1007F000E022C2F8001100BF00BF00BF0EBD000024
:1008000000100140001002400E48006800F4005043
:1008100040B14FF400500B4908600B480068401C81
:10082000094908600748006800F4804040B14FF46F
:1008300080400449086005480068401C034908607E
:100840007047000014040140180000201C00002024
:10085000002123498279002A3AD00A4612680368A7
:100860009A430B461A600A1D126803689A430B1DCF
:100870001A60027911440A6803681A430A60184A28
:100880000832126803689A43154B08331A601A1D20
:10089000126803689A43124B0C331A604279102A8B
:1008A0000ED11A1F126803681A430D4B08331A60E1
:1008B0001A1D126803681A43094B0C331A600DE0C5
:1008C0000749427911440A6803681A430A6005E03F
:1008D000027911440A6803689A430A60704700006D
:1008E0000004014030B500228B071C0F0F2303FAD0
:1008F00004F20B4B8C1053F824309343084C8D10AA
:1009000044F8253023468C1053F824308C07240FEC
:1009100000FA04F42343024C8D1044F8253030BD16
:100920000800014001461D48814204D11C488069ED
:10093000C0F3800070471B48814204D11848806989
:10094000C0F3C000F6E71848814204D1144880691A
:10095000C0F30010EEE71548814204D110488069C9
:10096000C0F34010E6E71248814204D10C48806988
:10097000C0F38010DEE70F48814204D10848806947
:10098000C0F3C010D6E70C48814204D10448806906
:10099000C0F30020CEE70020CCE7000000080140B3
:1009A00000100240000C0140001001400014014002
:1009B00000180140001C0140002001402DE9F041D9
:1009C00005460C46174698460F2C02D90020BDE874
:1009D000F0812846FFF7A6FF18B90121284600F04C
:1009E00029F8B8F1000F10D1022F05D1E8680121D4
:1009F000A1408843E86008E0032F06D127F00107F3
:100A0000E8680121A1400843E860082C01D22E4685
:100A100001E0083C2E1D3068A2000F219140884360
:100A2000306048EA8700A1008840316808433060A0
:100A30000120CCE7002945D0454A904206D1454ADD
:100A4000926942F00402434B9A6180E0424A90422C
:100A500006D1404A926942F008023E4B9A6176E024
:100A60003E4A904206D13B4A926942F01002394B0D
:100A70009A616CE03A4A904206D1364A926942F055
:100A80002002344B9A6162E0364A904206D1314AE4
:100A9000926942F040022F4B9A6158E0324A9042EC
:100AA00006D12C4A926942F080022A4B9A614EE0AC
:100AB0002E4A90424BD1274A926942F48072254BCC
:100AC0009A6144E0224A904206D1224A926922F079
:100AD0000402204B9A613AE01F4A904206D11D4A17
:100AE000926922F008021B4B9A6130E01B4A904247
:100AF00006D1184A926922F01002164B9A6126E03C
:100B0000174A904206D1134A926922F02002114BF3
:100B10009A611CE0134A904206D10E4A926922F073
:100B200040020C4B9A6112E00F4A904206D1094AEA
:100B3000926922F08002074B9A6108E00B4A9042CA
:100B400005D1044A926922F48072024B9A6170477F
:100B50000008014000100240000C0140001001405C
:100B60000014014000180140001C01400020014019
:100B700001480078704700000400002010B500F024
:100B800059F8FFF7A1FDFFF7E7FD00F061FD62B640
:100B900010BD000030B5012801DB032800DD30BDA9
:100BA000441E0A4D55F8341005EBC4040123626855
:100BB0001BB1012494400C6104E002F110040125F2
:100BC000A5400D6100BF00BFE9E70000A447000891
:100BD00030B5012801DB032800DD30BD441E0A4D7D
:100BE00055F8341005EBC404002362681BB10124DE
:100BF00094400C6104E002F110040125A5400D6150
:100C000000BF00BFE9E70000A447000810B50124B9
:100C100003E0E0B2FFF7BEFF641C032CF9DD10BD5A
:100C200010B5012403E0E0B2FFF7D2FF641C032CEF
:100C3000F9DD10BD70B500241DE0104A02EBC402BE
:100C400051680E4A52F8340002230022FFF7B6FE24
:100C50000A4B53F8340003EBC403012259681AB15C
:100C600001238B40036104E001F1100301259D4045
:100C7000056100BF641C032CDFDB70BDA4470008C6
:100C800001F03EFE01F030FE00F0AAF90020144908
:100C900008800220FFF77EFF01F01AFE00BF01204E
:100CA00001F0B6FF0F4800780028F8D000200D4969
:100CB00008700220FFF78CFF0B4800F081F828B184
:100CC0000320FFF785FF094800F00CF901F000FE52
:100CD0000220FFF75FFF0320FFF75CFFDFE7000064
:100CE00006000020200000204802002043030020CE
:100CF00070B5002100230F22C47804B3154C24687A
:100D000004F4E064C4F5E064210AC1F10403CA40BC
:100D1000447804FA03F184781440214309010E4C0D
:100D20000678A155047804F01F050124AC4005782D
:100D30006D11AD0005F1E025C5F8004109E004782A
:100D400004F01F050124AC40044D0678761145F8E7
:100D5000264070BD0CED00E000E400E080E100E022
:100D600010B501F0C1FD01200149087010BD00005F
:100D70002000002010B504460E480078C8B90021B4
:100D80000D4800F07EFA00210B4800F08FFA012197
:100D9000094800F076FA09480078FA2801DB01F0EA
:100DA0006FFD064801780078401C044A1070501C02
:100DB000445410BD200000200008004048020020DC
:100DC00070B505460DB9002070BD284600F0A0FEA4
:100DD00008B90020F8E76C1CFFF7CAFE21788842AA
:100DE00001D00020F0E700266078032802D0102808
:100DF00010D107E02878001FC1B2A01C00F092F8C3
:100E000006460DE02878001FC1B2A01C00F04EFC81
:100E1000064605E06078012100F0A6FE064600BF08
:100E200000BF3046D0E7000029B1064AD26902432C
:100E3000044BDA6104E0034AD2698243014BDA6170
:100E4000704700000010024029B1064A926902432F
:100E5000044B9A6104E0034A92698243014B9A6110
:100E600070470000001002402DE9F04107460D4692
:100E700015B90020BDE8F081384600F0F5FC0446C5
:100E80005CB1606848B16088616888470646002E9A
:100E900002DB2E800120EDE700BF0020EAE72DE90C
:100EA000F04105460E46284600F0DEFC044654B1EB
:100EB000A06838B16088A268314690470746384636
:100EC000BDE8F08100BF0020FAE730B505462846AE
:100ED00000F0CAFC04461CB1A06808B1012030BD76
:100EE0000020FCE710B5044604B910BD01F0B8FAC3
:100EF00000200B4908600AE0611C094A1268885CFE
:100F000001F0A2FB06480068401C054908602078F3
:100F1000034909688842EFDC01F08CFA00BFE4E77E
:100F2000240000202DE9F043B3B00546894615B1F1
:100F3000B9F1040F03D0002033B0BDE8F0832C4694
:100F40006088000AA17840EA012060802088000AB9
:100F5000217840EA012020806088642805DD032193
:100F6000084600F001FE0120E6E70DF1010700262A
:100F7000B4F800801AE007EB46014046FFF774FF23
:100F800028B90221032000F0EFFD0120D4E737F853
:100F90001600000A17F8161040EA012027F816007C
:100FA00008F101001FFA80F8701CC6B22088618821
:100FB00008444045DFDCA0784006000E8DF80000B4
:100FC000FFF7D6FD8046A078012101EB4000C3B2B7
:100FD0006A460321404600F0EFFD0120ACE7000027
:100FE00010B5022300220B212F48FFF7E7FC0B204E
:100FF000002121B1012282402B4B1A6105E000F152
:10100000100201239340284A136100BF27488069DA
:1010100040F480402549886140F2413024490880ED
:10102000081D008842F22C0108432149091D08804F
:101030001E48806940F005001C4988611A48001D5F
:10104000006820F0C0001849091D086008460068C3
:1010500040F0800008600846006840F0100008601A
:101060000846006820F4406008600846006840F4C4
:10107000806008600846006820F440700860252001
:1010800000280DDB00BF00BF00F01F0201219140CE
:101090004209920002F1E022C2F8001100BF00BF35
:1010A00000BF62B610BD0000000801400010024001
:1010B000083801402DE9F04F85B0064689460020EA
:1010C0000490012001F0F9FB00285FD0062102A85E
:1010D00001F0E0FB022102A8FFF722FB05469DF884
:1010E0000A10A94252D102210DF10B00FFF718FBA3
:1010F00005469DF80D00A84248D102ACB4F8031093
:10110000090AE27841EA022003F068FA824621499E
:10111000504603F081F98246504603F051F900220F
:101120001D4BCDE9000102F063FF074602F0E8FC29
:101130008246C6F800A02188090A227841EA0220E6
:1011400003F04CFA83461349584603F065F9834689
:10115000584603F035F90022104BCDE9000102F0AA
:1011600047FF074602F0CCFC8346584603F028F9B7
:10117000074600220A4B03F039F8CDE9000102F0DE
:10118000BFFC8346C9F800B001200490049805B064
:10119000BDE8F08F00FF7F470000594000E0654048
:1011A0000080464010B50024002001F086FB40B1CD
:1011B0002B2000F081FC20B1322000F07DFC00B13A
:1011C0000124204610BD704710B500BFA02080F359
:1011D0001188BFF34F8FBFF36F8F00BF02F04EFA3D
:1011E00018B14FF080500449086000BF002080F320
:1011F000118800BF10BD000004ED00E010B51648D6
:10120000006840F00100144908600846406813492E
:1012100008401149486008460068114908400E49D5
:1012200008600846006820F480200860084640688E
:1012300020F4FE0048600846006820F0A0500860D6
:101240004FF47F0088600020C862FFF7BCFF4FF0BA
:1012500000600449086010BD001002400000FFF06B
:10126000FFFFF6FE08ED00E010B50121024800F096
:1012700005F8FFF775FD10BD00080040CA43028263
:10128000704721B1028842F00102028004E0028826
:101290004FF6FE731A40028070471AB183890B43E0
:1012A000838102E083898B43838170478184704707
:1012B000002202881D4B98420ED01D4B98420BD045
:1012C000B0F1804F08D01B4B984205D01A4B984282
:1012D00002D01A4B984204D14FF68F731A404B88B4
:1012E0001A43174B984207D0164B984204D04FF63A
:1012F000FF431A40CB881A4302808B8883850B8872
:1013000003850A4B98420BD0094B984208D00E4BEC
:10131000984205D00D4B984202D00D4B984201D116
:101320000B7A03860123838270470000002C014062
:10133000003401400004004000080040000C004060
:1013400000100040001400400040014000440140F3
:10135000004801404FF6FF71818000210180C1806B
:1013600041800172704700000EB500240AE0FFF7CB
:1013700057FC642001F04CFCFFF748FC642001F0AE
:1013800047FC641C052CF2DB0020012103460A0205
:10139000CDE9001025A1274802F02AF900200221FA
:1013A0000346CA01CDE9001023A1254802F020F927
:1013B000002001210346CA02CDE9001021A12348E3
:1013C00002F016F900BF02F053F9029000BFFA21B3
:1013D00002A801F04BFCFFF761F904461C480078B5
:1013E000844221D04FF4FA6001F012FCFFF756F965
:1013F000A04219D116490C700120164908701448F2
:101400000078C6B200250CE00320FFF7E1FBC820FE
:1014100001F0FEFB0320FFF7BDFBC82001F0F8FB45
:101420006D1CB542F0DB00BFD1E70000416E616C7E
:101430006F670000591400084469676974616C00A3
:10144000811400084D4F444255530000810C0008A0
:10145000040000200500002008B500F08DF900BF51
:1014600002F006F9009000BF6421684601F0FEFB1F
:10147000002000F0BDF901490880F5E700000020D8
:1014800086B000BF00BF00BF0024A14602F0F0F804
:1014900003900020029000BF4FF4FA7103A801F0FE
:1014A000E5FB0120FFF794FB04F5FA74B4F5FA6F3D
:1014B0002FD300244748006802F083FD074600222E
:1014C000454B02F095FD054602F01AFB83460020CD
:1014D00040490860584602F073FF054600223F4B22
:1014E00002F0E8FB074602F00BFB01903C49019833
:1014F00003F08CF805463B4902F08EFF00903A4914
:10150000009803F083F8054603F048F8374908804F
:1015100000BF3748006840B100203549086001200D
:10152000344908804FF000090AE009F5FA794EF6CF
:101530006020814504D34FF0000900202D49088028
:1015400000F0B2F92C4908804FF0000A029818B94F
:10155000FFF728FE02902CE004A905A8FFF7AAFDDA
:1015600038B300202549088025490880059802F0F5
:1015700027FF07460022234B02F03AFD054602F002
:10158000F1FC0FFA80FB049802F01AFF07460022D4
:101590001C4B02F02DFD054602F0E4FC00B2019068
:1015A0001949A1F800B01949019808804FF0010AC3
:1015B00000BFBAF1000F09D101201049088010497D
:1015C0000880002010490880104908800120FFF79A
:1015D000E1FA61E71C00002000209C4000009940D7
:1015E0000020C944000061450000C84208000020F6
:1015F000180000200A0000200C0000200E0000202F
:1016000012000020000024401000002014000020E0
:1016100010B50B48008840F22551084078B10848C1
:10162000008800F0070038B9054800F00BF8C4B294
:101630002046FFF79FFB02E0014800F003F810BDD1
:101640000038014001468888C0F308007047000058
:1016500070B500241DE0134A02EBC4021179114A4F
:1016600052F8340002230122FFF7A8F90D4B53F87A
:10167000340003EBC403197901221AB101238B4012
:10168000036104E001F1100301259D40056100BFE5
:10169000641C042CDFDB0023012219460248FFF7FB
:1016A0008DF970BDBC470008000C01402DE9F843DE
:1016B0000546884615B1B8F1070F02D20020BDE8F3
:1016C000F8832C466088000AA17840EA01206080F7
:1016D0002088000A217840EA01202080618864295E
:1016E00006DC207900EBD07149106288914205D068
:1016F0000321102000F038FA0120E0E700260CE07A
:101700002188314488B2FFF7E0FB28B9032110207B
:1017100000F02AFA0120D2E7761C6088B042EFDCA4
:10172000671D00260CE037F81620120A17F816304D
:1017300042EA03212288324490B2FFF7B0FB761CC4
:101740006088B042EFDC2088000A217840EA01205E
:10175000ADF800006088000AA17840EA0120ADF8E9
:101760000200FFF705FA064604236A46102100F03E
:1017700023FA0120A3E7000000B585B0012148024B
:10178000FFF762FB6846FEF780FF002000908DF8AF
:1017900004008DF805004FF46020029000200390B3
:1017A00001208DF8100069461048FEF7D5FE012192
:1017B0000E48FEF7A4FE0523012200210B48FEF788
:1017C000F3FE0A48FEF74CFF00BF0848FEF7B9FEDB
:1017D0000028FAD10548FEF753FF00BF0348FEF783
:1017E00099FE0028FAD105B000BD00000024014098
:1017F0002DE9F04104460025052301222146104829
:10180000FEF7D2FE002712E001210D48FEF72DFF62
:1018100000BF02210A48FEF78BFE0028F9D00848D5
:10182000FEF782FE0544052001F0F2F97F1C0A2F25
:10183000EADB0A20B5FBF0F086B23046BDE8F08165
:1018400000240140F0B505460E464FF6FF77002410
:1018500006E0295DB8B2FEF747FF0746601CC4B238
:10186000B442F6DBB8B2F0BDF0B5014600254FF446
:10187000BA720C2392FBF3F084B200200CE000EB70
:101880004006084F37F826608E4204D100EB400630
:1018900007EB860502E0401CA042F0DB00BF2846B3
:1018A000F0BD00004600002070B500250020044671
:1018B00038E0204B53F8340003EBC40319790022BD
:1018C0001AB101238B40036104E001F110030126EA
:1018D0009E40066100BF0A2001F09AF900201649D7
:1018E0008968C14001F0010109B1012000E0002038
:1018F00020B10120A040284380B205460D4B53F88B
:10190000340003EBC403197901221AB101238B407F
:10191000036104E001F1100301269E40066100BF4F
:10192000601C0446042CC4DB05B900E000BF00BF06
:10193000284670BDBC470008000C014010B50223CA
:10194000012207211848FFF739F80720002121B1AB
:1019500001228240144B1A6105E000F110020123BC
:101960009340114A136100BF0620012121B10122D9
:1019700082400D4B1A6105E000F1100201239340F3
:10198000094A136100BF0620002121B101228240D3
:10199000054B1A6105E000F1100201239340024A51
:1019A000136100BF10BD0000000C014010B50621FE
:1019B000012222B101238B40104C236105E001F18B
:1019C000100301249C400D4B1C6100BF07210B4AF2
:1019D0009268CA4002F0010000BF0621002222B135
:1019E00001238B40054C236105E001F11003012424
:1019F0009C40024B1C6100BF10BD0000000C014068
:101A000070B500260023012207210848FEF7D6FF03
:101A1000072507E0FFF7CAFF044604FA05F0304344
:101A2000C6B26D1E002DF5DA304670BD000C0140C7
:101A300010B502467AB90720002121B10123834065
:101A40001C4C236105E000F1100301249C40194B5C
:101A50001C6100BF0FE00720012121B10123834059
:101A6000144C236105E000F1100301249C40114B4C
:101A70001C6100BF00BF0620012121B1012383406A
:101A80000C4C236105E000F1100301249C40094B3C
:101A90001C6100BF0620002121B101238340054CB9
:101AA000236105E000F1100301249C40014B1C61FF
:101AB00000BF10BD000C014070B505460026022392
:101AC000012207211148FEF779FF07240BE00121CD
:101AD000A1402940002901DD012100E00021084644
:101AE000FFF7A6FF641E002CF1DA00230122072174
:101AF0000648FEF763FF072004498968C14001F0EA
:101B0000010101B90126304670BD0000000C014002
:101B100070B504462078801E611C0D5A2078801E06
:101B2000C1B2601CFFF78EFE0646B54201D101200E
:101B300070BD0020FCE700001CB5FFF71FF8002077
:101B4000012103460A02CDE9001004A1054801F075
:101B50004FFD01F043F900201CBD000041444452F8
:101B600000000000691300087CB504460D46FEF72E
:101B7000FFFF8DF8000004F03F0040F080008DF87A
:101B800001008DF8025003216846FFF75BFEADF8B7
:101B90000300FB210748FEF7FAFB06480099C0F84E
:101BA00001109DF8041041710520024908700120C0
:101BB0007CBD0000430300202DE9F04780468946A4
:101BC00016461C46002C02DD0EB9BDE8F087F52C48
:101BD00000D9FAE7FB211548FEF7D9FB134D6D1C20
:101BE00085F8008085F801905CB14FF0000A06E0AE
:101BF00022463146A81CFEF785FB0AF1010AA245E0
:101C0000F6DBA01C0949087008460178401CFFF764
:101C100019FE074605490A78491C8F52481E00786C
:101C2000801C491E087000BFCFE70000430300205E
:101C30002DE9F04105460F46174806681748006829
:101C4000001D00F08BFE50B91448006890F82C106D
:101C500001208840124909688143114801607419C4
:101C60000E4800684460B44207D20C480168091D60
:101C70000C48006800F096FE0CE008480168091D59
:101C80000948006800F08EFE08480068844201D2CE
:101C900006480460BDE8F0810C020020FC01002031
:101CA0001002002004020020000200202802002070
:101CB00010B5044600F09CFE23480068401C2249F1
:101CC00008602248006840B920480460084600685F
:101CD00001280DD100F098F90AE01D48006838B9D4
:101CE0001A480068C06AE16A884201D8174804604F
:101CF00018480068401C1749086094F82C1001200F
:101D0000884015490968084313490860E16A01EBF6
:101D10008101124A02EB8100211D00F05DFE00F0FE
:101D200091FE0B48006868B108480068C06AE16A23
:101D3000884207D24FF0805009490860BFF34F8FA7
:101D4000BFF36F8F10BD000008020020FC010020CF
:101D500014020020240200201002002078790020C4
:101D600004ED00E010B500F043FE0C48006890B9A7
:101D70000B4800F007FE0B4800F004FE08480A4933
:101D8000086008480949086000220C21052001F07C
:101D90004DF90249086000F055FE10BD3C020020DC
:101DA000187A00202C7A002034020020380200200B
:101DB000704770B504460D46206C70B1216CE06828
:101DC0000144E160D4E90210884201D32168E16056
:101DD0002846226CE168FEF795FA70BD2DE9F041C6
:101DE00004460F4615464FF00008A66B206C48B914
:101DF000206800282CD1A06801F0E4FC8046002077
:101E0000A06025E07DB93946226C6068FEF77AFA59
:101E1000216C606808446060D4E90101884217D3EE
:101E20002068606014E03946226CE068FEF76AFAC8
:101E3000216CE068411AE1602168E068884203D2C1
:101E4000216CA068411AE160022D01D106B1761E15
:101E5000701CA0634046BDE8F08100000146084ABE
:101E6000126812680AB9012200E000220A600A68BA
:101E700022B9034A1268D268106800E00020704757
:101E80003402002030B547F23053174800F0070401
:101E90002CB1C01D20F00700134C041B1B1B024675
:101EA000124C22600024114D6C60D018083820F0CC
:101EB00007000F4C206000240D4D2D686C600C4D08
:101EC0002D682C601146441A4C60094C24680C6043
:101ED000084D4C682C60084D4C682C604FF0004455
:101EE000064D2C6030BD000048040020D0010020C9
:101EF000D8010020E0010020DC010020EC010020DE
:101F000000BFFFF755FF064800680128F9D94FF0D8
:101F1000805004490860BFF34F8FBFF36F8FF0E725
:101F20007879002004ED00E02DE9F04106460D46E9
:101F300017469846069C0DB9246000E02760E663CA
:101F400025640121204601F09BF80020A064BDE833
:101F5000F0812DE9FF5F81460E469246DDE90E7B5A
:101F6000109CAAF10100216B01EB800828F0070802
:101F700008F0070008B9012000E0002050B900BFB8
:101F8000A02080F31188BFF34F8FBFF36F8F00BF86
:101F900000BFFEE786B1002507E0715D04F1340063
:101FA0004155705D00B902E06D1C0A2DF5D300BFEC
:101FB00000213D20015502E0002084F83400052F67
:101FC00000D30427E762276400206064201D00F02E
:101FD000E6FC04F1180000F0E2FC2461C7F1050002
:101FE000A06164620020A06484F84C004946404629
:101FF000039A00F0E3FB2060BBF1000F01D0CBF8A7
:102000000040BDE8FF9F000010B5002407E004EB8E
:1020100084010C4A02EB810000F0B4FC641C052C26
:10202000F5D3094800F0AEFC084800F0ABFC0848C6
:1020300000F0A8FC04480749086004480649086005
:1020400010BD000078790020DC790020F0790020B4
:10205000047A0020000200200402002010B501468E
:10206000164800E0006803688B42FBD302464368D1
:1020700013448B4204D143684C68234443600146B7
:102080000A464B6813440468A34211D10C4C036800
:102090002468A34208D04B680468646823444B60FA
:1020A00003681B680B6005E0054B1B680B6001E0D3
:1020B00003680B60884200D0016010BDD001002091
:1020C000D80100202DE9F04104460D4616461F4672
:1020D0004FF0000865602461B5420CD8F01BA1697F
:1020E000884202D34FF0010811E0211D0948006821
:1020F00000F058FC0BE0BE4204D2BD4202D34FF0C8
:10210000010804E0211D0448006800F04BFC404633
:10211000BDE8F081380200203402002070B5054689
:1021200000F066FCA86B08B9012400E0002400F070
:1021300089FC204670BD70B5054600F059FCA86BBF
:10214000E96B884201D1012400E0002400F07AFC10
:10215000204670BDF1B50098846C002654B900BFCC
:10216000A02080F31188BFF34F8FBFF36F8F00BFA4
:1021700000BFFEE7A06BE16B884201D2012000E0C6
:10218000002050B900BFA02080F31188BFF34F8F0B
:10219000BFF36F8F00BF00BFFEE7A06BE16B88420B
:1021A0001BD294F94550002269462046FFF716FEDF
:1021B0000646681C60B9606A08B9012000E000208A
:1021C00050B904F1240001F061FB28B1012603E0BD
:1021D000681C40B284F8450000BF3046F8BD0000DE
:1021E000F8B505460F461A480068C068C468201D47
:1021F00000F0B4FB94F8240000F00400E8B1A069FA
:1022000041192B463A462046FFF75CFFD8B1002023
:1022100003462A4601460090204601F02FFC064660
:1022200056B900BFA02080F31188BFF34F8FBFF3D2
:102230006F8F00BF00BFFEE705E094F8240020F098
:10224000010084F824002046216A8847F8BD000078
:102250003402002070B586B08BE003980028FBDBC9
:10226000059C606908B9012000E0002010B9201D1C
:1022700000F074FB02A800F009F9054603980A284B
:1022800075D2DFE800F009050739416306083A42D4
:1022900000BF00BF00BF00BF94F8240040F0010061
:1022A00084F824000498A269811803462A4620462F
:1022B000FFF708FFF8B12046216A884794F8240008
:1022C00000F00400B8B1002000900498A169421801
:1022D00000231946204601F0D1FB064656B900BF3F
:1022E000A02080F31188BFF34F8FBFF36F8F00BF23
:1022F00000BFFEE700BF3BE000BF94F8240020F0E1
:10230000010084F8240033E000BF94F8240040F07A
:10231000010084F824000498A061A06908B101209C
:1023200000E0002050B900BFA02080F31188BFF367
:102330004F8FBFF36F8F00BF00BFFEE7A069411949
:102340002B462A462046FFF7BDFE11E094F82400F4
:1023500000F0020018B9204600F092FB05E094F866
:10236000240020F0010084F8240001E0FFE700BF12
:1023700000BF002203A90448006801F043F80028C8
:102380007FF46BAF06B070BD3C020020F8B5054687
:102390000C4600F06DFD684600F078F8064600989F
:1023A00020BB44B9B54206D801F0BCFA31462846F4
:1023B000FFF716FF1CE03CB10E480068006808B942
:1023C000012000E000200446A91B22460A480068BC
:1023D00000F0F8FB01F0A6FA50B94FF08050074921
:1023E0000860BFF34F8FBFF36F8F01E001F09AFADF
:1023F000F8BD0000380200203C02002004ED00E09F
:102400000A490968096809B9012100E0002121B1E0
:102410004FF0FF31064A116006E004490968C968B7
:10242000C868034A4168116070470000000200203C
:102430002802002010B5022000F0EAFB0B2000214A
:1024400021B101228240054B1A6105E000F1100222
:1024500001239340014A136100BF10BD00080140F1
:1024600010B50B20012121B101228240064B1A61D7
:1024700005E000F1100201239340034A136100BFFD
:10248000012000F0C5FB10BD0008014070B50446F6
:1024900001F0EEF8054607480068854204D200F0D6
:1024A0000BF80120206001E0002020600148056059
:1024B000284670BD440200202DE9F84334E0254849
:1024C0000068C068056823480068C068C468201DAB
:1024D00000F044FA2046216A884794F8240000F06E
:1024E000040008B3A0694619AE4207D966602461AA
:1024F000211D1848006800F055FA15E00020034639
:102500002A4601460090204601F0B8FA074657B91E
:1025100000BFA02080F31188BFF34F8FBFF36F8FF0
:1025200000BF00BFFEE700BF0A480068006808B9A6
:10253000012000E000200028C1D00648D0F800802B
:1025400005480068034908600348C0F80080BDE8FA
:10255000F883000034020020380200200E48006892
:10256000401C08B9012000E0002050B900BFA020A5
:1025700080F31188BFF34F8FBFF36F8F00BF00BF91
:10258000FEE700BFA02080F31188BFF34F8FBFF399
:102590006F8F00BF00BFFEE7F001002008B500BF4D
:1025A0006846FFF75BFC044620460099FFF7EEFE05
:1025B000FFF750FEF4E770B5044600F019FA94F9FD
:1025C000455019E0A06C30B12046FFF7C3FD88B13B
:1025D00000F0C2FB0EE0606A08B9012000E00020B4
:1025E00038B904F1240001F051F918B100F0B4FB3E
:1025F00000E003E0681E45B2002DE3DC00BFFF20D1
:1026000084F8450000F01EFA00F0F2F994F9445005
:1026100010E0206908B9012000E0002048B904F169
:10262000100001F033F908B100F096FB681E45B2C6
:1026300000E001E0002DECDC00BFFF2084F8440046
:1026400000F000FA70BD000000BF0849098801F0E1
:1026500080010029F9D00549091D088000BF034900
:10266000098801F080010029F9D070470038014045
:102670002DE9F04104464FF0000800F0F9FB49480D
:10268000006808B9FFF7FEFB4748006820400028B3
:1026900070D1D4B1083404F00700B0B104F00700E1
:1026A000C0F10800044404F0070008B9012000E06C
:1026B000002050B900BFA02080F31188BFF34F8FD6
:1026C000BFF36F8F00BF00BFFEE7002C52D037482A
:1026D000006884424ED8364E3046056801E02E46EA
:1026E0002D686868A04202D228680028F7D12D48DA
:1026F000006885423ED0306800F1080828683060E4
:102700006868001B102819D92F1907F0070008B9AD
:10271000012000E0002050B900BFA02080F3118804
:10272000BFF34F8FBFF36F8F00BF00BFFEE7686836
:10273000001B78606C603846FFF790FC1B496868A6
:102740000968081A194908600846006819490968A3
:10275000884203D215480068164908601249686823
:102760000968084368600020286013480068401C1E
:102770001149086001F0D6F808F0070008B90120F7
:1027800000E0002050B900BFA02080F31188BFF303
:102790004F8FBFF36F8F00BF00BFFEE74046BDE81D
:1027A000F0810000D8010020EC010020DC010020B5
:1027B000D0010020E0010020E4010020001F4FF0C4
:1027C00080730360001F21F001030360001F034BAF
:1027D0000360143802602038704700005D2500084F
:1027E0000146024830F8110070470000E047000839
:1027F0000146024830F8110070470000E047000829
:10280000014631B1012907D0022908D003290CD192
:1028100008E008480088704707480088FBE7074839
:102820000088F8E706480088F5E700BF00BF4FF0D2
:10283000FF30F0E70E000020100000201200002002
:102840001400002001460148008870470A0000205B
:1028500001460148008870470000002001460148F9
:102860000088704706000020014601480088704734
:102870000C00002001460148008870470800002035
:102880000020024908700249087070474802002081
:102890004303002070B504460D460CB1012D00DA4B
:1028A00070BD002605E0FFF7ABF8A055FFF746F82E
:1028B000761CAE42F7DB00BFF2E770B5044644F089
:1028C00044052846FFF7F8F80646304670BD00007C
:1028D00010B500F009F8FFF7D3FF00200149087098
:1028E00010BD00002000002010B500210348FEF7B5
:1028F000C8FC00210148FEF7D9FC10BD00080040CB
:1029000010B501210420FEF78FFA1248FEF722FDD0
:102910004FF4FA500F490880032088800E48FEF7D4
:10292000C7FC012211460C48FEF7B7FC1E20002808
:102930000DDB00BF00BF00F01F02012191404209E2
:10294000920002F1E022C2F8001100BF00BF00BFF8
:1029500010BD00003E0400200008004001460A6946
:10296000D1E901309860D1E901035860506888428C
:1029700001D188685060002008611068401E106016
:102980001068704700F1080141604FF0FF3181602D
:1029900000F10801C1600161002101607047002160
:1029A0000161704710B502460B685C1C0CB91069D8
:1029B00007E002F1080000E04068446824689C4297
:1029C000FAD944684C604C68A160886041600A6133
:1029D0001468641C146010BD42684A6093688B6080
:1029E000936859609160086103685B1C03607047DD
:1029F00000BFA02080F31188BFF34F8FBFF36F8F0C
:102A000000BF0E480068401C0C490860084600687A
:102A1000012812D10A480068C0B208B9012000E0BC
:102A2000002050B900BFA02080F31188BFF34F8F62
:102A3000BFF36F8F00BF00BFFEE77047F0010020BB
:102A400004ED00E00D48006850B900BFA02080F3FD
:102A50001188BFF34F8FBFF36F8F00BF00BFFEE73A
:102A600006480068401E054908600846006820B90D
:102A7000002080F3118800BF00BF7047F0010020E4
:102A800070B506463546002E44D0083D2C462249F6
:102A900060680968084008B1012000E0002050B9D2
:102AA00000BFA02080F31188BFF34F8FBFF36F8F5B
:102AB00000BF00BFFEE7206808B9012000E0002049
:102AC00050B900BFA02080F31188BFF34F8FBFF330
:102AD0006F8F00BF00BFFEE70F49606809680840BC
:102AE000C0B12068B0B90C4960680968884360606B
:102AF00000F0BEF9094960680968084407490860A0
:102B00002046FFF7ABFA06480068401C04490860FD
:102B100000F008FF70BD0000EC010020DC01002087
:102B2000E801002000204FF0E0210861886106489C
:102B300000684FF47A71B0FBF1F0401E4FF0E021D5
:102B40004861072008617047BC01002070B5FDF79F
:102B5000B5FB0446102C16D304F1E02090F8F05396
:102B600015480078854201DB012000E0002050B9C3
:102B700000BFA02080F31188BFF34F8FBFF36F8F8A
:102B800000BF00BFFEE70D48006800F4E0600C499C
:102B90000968884201D8012000E0002050B900BF38
:102BA000A02080F31188BFF34F8FBFF36F8F00BF5A
:102BB00000BFFEE770BD0000F40100200CED00E056
:102BC000F80100202DE9F04105460E4617462C4637
:102BD000FFF70EFF94F94400401C10B9002084F860
:102BE000440094F94500401C10B9002084F84500C9
:102BF000FFF728FFA06B28B93A46314604F12400BC
:102C000000F0CCF82046FFF7D6FCBDE8F0810000CC
:102C100070B504460025D4B11248006808B90120F7
:102C200000E0002050B900BFA02080F31188BFF35E
:102C30004F8FBFF36F8F00BF00BFFEE700F018F9A2
:102C400000212046FEF7F4FF00F06CFE05463DB97A
:102C50004FF0805004490860BFF34F8FBFF36F8F70
:102C600070BD00003002002004ED00E02DE9F047C7
:102C700004460F464FF0000954B900BFA02080F36E
:102C80001188BFF34F8FBFF36F8F00BF00BFFEE708
:102C90000FB1012000E0002050B900BFA02080F358
:102CA0001188BFF34F8FBFF36F8F00BF00BFFEE7E8
:102CB0002048006808B9012000E0002050B900BF9A
:102CC000A02080F31188BFF34F8FBFF36F8F00BF39
:102CD00000BFFEE700F0CCF8174806682068C51969
:102CE0002068B04207D92068A8420BD9B54209D95B
:102CF0004FF0010906E02068A84201D8B54201D989
:102D00004FF001092560B9F1000F03D0A81B002185
:102D1000FEF78EFF00F006FE8046B8F1000F07D1E7
:102D20004FF0805005490860BFF34F8FBFF36F8F9E
:102D3000BDE8F087300200200C02002004ED00E026
:102D40000349096801600349096841607047000050
:102D5000200200200C020020012001490860704779
:102D60001C02002070B504460D4654B900BFA020D7
:102D700080F31188BFF34F8FBFF36F8F00BF00BF89
:102D8000FEE70548016818312046FFF70BFE0121D8
:102D90002846FEF74DFF70BDFC01002070B50546CA
:102DA0000E46144655B900BFA02080F31188BFF32A
:102DB0004F8FBFF36F8F00BF00BFFEE7064801686B
:102DC00018312846FFF708FE0CB14FF0FF362146B8
:102DD0003046FEF72DFF70BDFC0100201CB51D48DC
:102DE00000210B464FF48072CDE900101AA11C4857
:102DF00000F0FEFB0446012C02D100F015FE044653
:102E0000012C15D100BFA02080F31188BFF34F8F94
:102E1000BFF36F8F00BF4FF0FF30124908600120F1
:102E20001149086000201149086000F083F810E0A3
:102E3000601C08B1012000E0002050B900BFA020B4
:102E400080F31188BFF34F8FBFF36F8F00BF00BFB8
:102E5000FEE71CBD2C02002049444C450000000048
:102E6000011F000828020020140200200C0200208C
:102E700002480068401C0149086070473002002089
:102E80001D48006818B101201C49086032E000208C
:102E90001A4908601A480068B0FA80F0C0F11F01B2
:102EA00001EB8100174A52F8200008B1012000E030
:102EB000002050B900BFA02080F31188BFF34F8FCE
:102EC000BFF36F8F00BF00BFFEE701EB81020D4B28
:102ED00003EB820042685268426000F108024368D6
:102EE000934202D14268526842604268D268064BFF
:102EF0001A6000BF70470000300200201C02002052
:102F00001002002078790020FC01002002460E2AE1
:102F100001DD00207047024820F812100120F9E777
:102F2000280000200246024801800120704700006E
:102F3000060000201CB53849084600780190FF20A3
:102F40000A4610700846007800909DF8000000F4D2
:102F50007F609DF80020904201D1012000E0002018
:102F600050B900BFA02080F31188BFF34F8FBFF38B
:102F70006F8F00BF00BFFEE79DF8000000F0A000CB
:102F8000264A10700720264A106009E0244800688D
:102F9000401E234A10609DF800004006000E00907D
:102FA0009DF8000000F080008028EFD01C480068E9
:102FB000C0F10700042801D1012000E0002050B931
:102FC00000BFA02080F31188BFF34F8FBFF36F8F36
:102FD00000BF00BFFEE7124800680002104A106000
:102FE0001046008800F4E06010600B4A01981070F1
:102FF0000C48006840F07F600A4908600846006895
:1030000040F070400860FFF78DFD00200649086021
:10301000FDF71EF900201CBD00E400E0F4010020D3
:10302000F801002020ED00E0F00100202DE9F84338
:1030300005460E4617460DB1012000E0002050B9AC
:1030400000BFA02080F31188BFF34F8FBFF36F8FB5
:1030500000BF00BFFEE705FB06F808F14C00FFF7D4
:1030600007FB04464CB1A14609F14C093B464A46D0
:10307000314628460094FEF757FF2046BDE8F88306
:1030800070B505460E462C4654B900BFA02080F30B
:103090001188BFF34F8FBFF36F8F00BF00BFFEE7F4
:1030A000FFF7A6FCD4E90F12206801FB0200A06024
:1030B0000020A06320686060E06B401E226C2168E5
:1030C00000FB0211E160FF2084F8440084F8450011
:1030D0009EB9206908B9012000E00020A8B904F1D8
:1030E000100000F0D3FB80B14FF080500949086018
:1030F000BFF34F8FBFF36F8F07E004F11000FFF7AE
:1031000041FC04F12400FFF73DFCFFF79BFC01208C
:1031100070BD000004ED00E02DE9FF4782B00646D7
:1031200088461D464FF00009344654B900BFA02020
:1031300080F31188BFF34F8FBFF36F8F00BF00BFC5
:10314000FEE7B8F1000F01D1206C08B9012000E0C2
:10315000002050B900BFA02080F31188BFF34F8F2B
:10316000BFF36F8F00BF00BFFEE7022D02D1E06BFF
:10317000012801D1012000E0002050B900BFA020AB
:1031800080F31188BFF34F8FBFF36F8F00BF00BF75
:10319000FEE700F05DFA08B9049808B9012000E0E4
:1031A000002050B900BFA02080F31188BFF34F8FDB
:1031B000BFF36F8F00BF00BFFEE700BFFFF718FC33
:1031C000A06BE16B884201D3022D3ED1D4F838A028
:1031D0002A4641462046FEF701FE0746A06C88B10C
:1031E000022D02D1BAF1000F29D12046FEF7B2FF1D
:1031F00028B34FF080503D490860BFF34F8FBFF3B5
:103200006F8F1CE0606A08B9012000E0002068B9F7
:1032100004F1240000F03AFB88B14FF080503349AC
:103220000860BFF34F8FBFF36F8F08E03FB14FF0DF
:1032300080502E490860BFF34F8FBFF36F8FFFF7A9
:1032400001FC012006B0BDE8F087049818B9FFF72B
:10325000F9FB0020F6E7B9F1000F04D16846FFF74B
:103260006FFD4FF00109FFF7EDFBFFF701FEFFF7E0
:10327000BFFB94F94400401C10B9002084F84400BE
:1032800094F94500401C10B9002084F84500FFF770
:10329000D9FB04A9684600F069F9F8B92046FEF7A1
:1032A0004AFFA8B104F110000499FFF75BFD204626
:1032B000FFF781F900F036FB00287FF47FAF4FF075
:1032C00080500A490860BFF34F8FBFF36F8F75E7D7
:1032D0002046FFF770F900F025FB6FE72046FFF767
:1032E0006AF900F01FFB0020ACE7000004ED00E0ED
:1032F0002DE9F84F80468A4615461E46444654B985
:1033000000BFA02080F31188BFF34F8FBFF36F8FF2
:1033100000BF00BFFEE7BAF1000F01D1206C08B971
:10332000012000E0002050B900BFA02080F31188E8
:10333000BFF34F8FBFF36F8F00BF00BFFEE7022EBA
:1033400002D1E06B012801D1012000E0002050B93A
:1033500000BFA02080F31188BFF34F8FBFF36F8FA2
:1033600000BF00BFFEE7FFF7F1FB00BFA021EFF3B6
:10337000118081F31188BFF34F8FBFF36F8F00BFB0
:103380000746A06BE16B884201D3022E30D194F93D
:1033900045B0A06B0090324651462046FEF71EFD18
:1033A0000BF10100E0B9A06C58B1022E01D10098D8
:1033B000D8B92046FEF7CEFEB8B1B5B101202860DD
:1033C00013E0606A08B9012000E0002068B904F148
:1033D000240000F05BFA40B13DB10120286004E018
:1033E0000BF1010040B284F845004FF0010901E003
:1033F0004FF0000900BF87F3118800BF4846BDE8C1
:10340000F88F00002DE9F74183B005460E464FF0D6
:1034100000082C4654B900BFA02080F31188BFF3E8
:103420004F8FBFF36F8F00BF00BFFEE70EB9206C58
:1034300008B9012000E0002050B900BFA02080F3AF
:103440001188BFF34F8FBFF36F8F00BF00BFFEE740
:1034500000F0FEF808B9059808B9012000E0002046
:1034600050B900BFA02080F31188BFF34F8FBFF386
:103470006F8F00BF00BFFEE700BFFFF7B9FAA76B71
:10348000F7B131462046FEF794FC781EA063206910
:1034900008B9012000E0002060B904F1100000F03C
:1034A000F5F938B14FF080502F490860BFF34F8FC6
:1034B000BFF36F8FFFF7C6FA012006B0BDE8F081B9
:1034C000059818B9FFF7BEFA0020F6E7B8F1000F2B
:1034D00004D101A8FFF734FC4FF00108FFF7B2FA5E
:1034E000FFF7C6FCFFF784FA94F94400401C10B9BA
:1034F000002084F8440094F94500401C10B90020D5
:1035000084F84500FFF79EFA05A901A800F02EF8FF
:10351000F0B92046FEF702FEA0B104F1240005999F
:10352000FFF720FC2046FFF746F800F0FBF90028E3
:10353000A3D14FF080500C490860BFF34F8FBFF309
:103540006F8F9AE72046FFF736F800F0EBF994E723
:103550002046FFF730F800F0E5F92046FEF7DEFDE3
:1035600000288AD00020A8E704ED00E070B50546E9
:103570000C4655B900BFA02080F31188BFF34F8FD0
:10358000BFF36F8F00BF00BFFEE754B900BFA0209C
:1035900080F31188BFF34F8FBFF36F8F00BF00BF61
:1035A000FEE7FFF725FA104802686868131A0F490A
:1035B00028680968884204D06868904201D80126CA
:1035C0000DE02068984207D92068C01A206028467C
:1035D000FFF7B6FB002602E0002020600126FFF77F
:1035E00031FA304670BD00000C020020200200209D
:1035F0002DE9FF4F85B0804689461746DDE912ABBD
:10360000B800FFF735F8064656B15020FFF730F8FE
:1036100004460CB1266304E03046FFF731FA00E0BF
:1036200000247CB10020CDE900ABCDE902403A4650
:1036300049464046089BFEF78CFC2046FEF738FBC7
:10364000012501E04FF0FF35284609B0BDE8F08FB5
:103650000549096809B9012005E00449096809B963
:10366000022000E0002070471402002030020020F9
:1036700001490868704700000C0200202DE9F04164
:103680004FF000084448006800287CD14348006897
:10369000451C4248056015BB41480068006808B9F0
:1036A000012000E0002050B900BFA02080F3118865
:1036B000BFF34F8FBFF36F8F00BF00BFFEE73848E7
:1036C0000768384800683649086036480760364859
:1036D0000068401C34490860FEF792FE00BF334882
:1036E000006885423CD300BF2D480068006808B9D7
:1036F000012000E0002020B14FF0FF302B4908608E
:103700002DE027480068C068C4686668B54202D2E8
:103710002648066023E0201DFFF720F9A06A18B1B3
:1037200004F11800FFF71AF994F82C1001208840D2
:103730001F49096808431E490860E16A01EB8101DD
:103740001C4A02EB8100211DFFF746F91A49E06A85
:103750000968C96A8842C7D34FF00108C4E700BFAF
:1037600015480068C06A00EB8000124951F820003B
:10377000012801D94FF001081048006808B14FF046
:10378000010805E0FFE70E480068401C0C4908608E
:103790004046BDE8F0810000300200200C0200200D
:1037A0000002002004020020200200202802002045
:1037B0001002002078790020FC0100201C0200206B
:1037C0001802002070B505462C460026002D55D065
:1037D0002B480068844201D1012000E0002050B94C
:1037E00000BFA02080F31188BFF34F8FBFF36F8F0E
:1037F00000BF00BFFEE7606C50B900BFA02080F39F
:103800001188BFF34F8FBFF36F8F00BF00BFFEE77C
:10381000606C401E6064216CE06A88422ED0606C4F
:1038200060BB201DFFF79AF878B9E06A00EB8000D2
:10383000144951F8200040B994F82C100120884018
:1038400011490968814310480160206CE062E06A18
:10385000C0F10500A06194F82C10012088400A49AD
:103860000968084308490860E16A01EB8101054ADB
:1038700002EB8100211DFFF7AFF80126304670BD35
:10388000FC010020787900201002002070B5064667
:10389000F068C46854B900BFA02080F31188BFF35A
:1038A0004F8FBFF36F8F00BF00BFFEE704F118001A
:1038B000FFF754F815480068A8B9201DFFF74EF827
:1038C00094F82C10012088401149096808431049D8
:1038D0000860E16A01EB81010E4A02EB8100211DC3
:1038E000FFF77AF804E004F118010B48FFF774F8C9
:1038F0000A49E06A0968C96A884204D90125012099
:103900000749086000E00025284670BD300200200D
:103910001002002078790020047A0020FC010020A9
:103920001C02002070B5002400263648006850B9FB
:1039300000BFA02080F31188BFF34F8FBFF36F8FBC
:1039400000BF00BFFEE7FFF753F82E480068401E97
:103950002C4908600846006800284FD12A480068B2
:1039600000284BD024E02948C068C46804F118003E
:10397000FEF7F4FF201DFEF7F1FF94F82C10012054
:10398000884023490968084321490860E16A01EB3E
:103990008101204A02EB8100211DFFF71DF81E491D
:1039A000E06A0968C96A884202D301201B4908609D
:1039B0001648006808B9012000E000200028D2D095
:1039C0000CB1FEF71DFD1648056865B100BFFFF795
:1039D00055FE10B10120114908606D1E002DF6D171
:1039E00000200F4908600D48006838B101263007F3
:1039F0000C490860BFF34F8FBFF36F8FFFF722F8BA
:103A0000304670BD3002002008020020047A0020F9
:103A10001002002078790020FC0100201C02002008
:103A20001802002004ED00E01CB50024FEF79AF90E
:103A30000D48006850B10D48022100230A02CDE96B
:103A400000100BA10C48FFF7D3FD044654B900BF8A
:103A5000A02080F31188BFF34F8FBFF36F8F00BF9B
:103A600000BFFEE720461CBD3C02002040020020B3
:103A7000546D7220537663009D2500082DE9FE43A6
:103A800004460D4616461F46DDF828804FF0000913
:103A900054B900BFA02080F31188BFF34F8FBFF34C
:103AA0006F8F00BF00BFFEE71448006810B3009599
:103AB00001960294062D15DAFFF7CAFD022808D1F7
:103AC0000023424669460D480068FFF725FB814602
:103AD00010E000231A46694608480068FFF71CFBFF
:103AE000814607E000233A46694604480068FFF72C
:103AF000FFFB81464846BDE8FE8300003C020020F3
:103B000021F00042A2F16052B2F5801F01F00043A3
:103B100028BFD2F17F6C0BD95FEA001C43EAC202D6
:103B200042EB507018BF704728BF20F0010070476B
:103B3000B2F5801FBCBF184670474FEA410C1CF518
:103B4000001F02D2084600F028BE70B500F0FAFA55
:103B500000000089FFF7F6BF4FF00040A0F580009D
:103B60007047000010B591EA030F48BF83F000438F
:103B700000F14483841A71EB030C05D2121943EB54
:103B80000C03001B61EB0C01DFF824E14FEA115438
:103B9000A4EB135C1EEA430F18BF9EEA445F73D088
:103BA00023EA0E03DCF1200E21EA045143F48013D2
:103BB00032D322FA0CFE10EB0E0023FA0CFE41EB7E
:103BC0000E01CCF1200E03FA0EFE10EB0E0051F1A7
:103BD0000001B1F5801FCCF1200E32D201EB04516F
:103BE00012FA0EF2BDE8104058BF7047401C38BFB3
:103BF0005FEA420218BF7047002814BF20F001009E
:103C000041F100014FEA410313F5001F38BF70472F
:103C1000A1F1C04100F0E4BA012A43EB0302ACF188
:103C2000200CDCF11F0E32BF4FF0000E23FA0CF314
:103C300010EB030041EB0451B4EB115FD0D0A1EBCA
:103C4000045101F5801149085FEA300001EB04518D
:103C50000ED350F1000038BF12FA0EFE08D1BDE8B5
:103C60001040C9E7401C38BF5FEA4202CAD1C3E72F
:103C7000BDE810404FEA410313F5001F38BF7047FD
:103C8000A1F1C04100F0ACBA9EEA445F08D011EA4D
:103C90005E0FBDE8104004BF01F0004100207047F6
:103CA000BDE8104070B500F04DFA00BF64FBBE3EA9
:103CB0000000E0FF2DE9C04130B4DFF8A0C23CEACB
:103CC000111418BF3CEA131400F0EC8081EA0305DC
:103CD0001CEA111444EAD57418BF1CEA131500F04D
:103CE000C780A4EB05044FF0004545EAC12145EA31
:103CF000C32341EA505143EA525304F17F7499427D
:103D000004F500344FEAC0204FEAC22208BF9042B7
:103D100000F09C804FEA13650FF24016765D4FEA83
:103D2000134506FB05F7C7F1807706FB07F74FEA57
:103D3000D737A7FB03687642C8F58038A7FB06CEC5
:103D400038BFA8F1010807FB08E64FF0000EA6FBFC
:103D5000028CE6FB03CEDCF1000CCEF1004E38BF46
:103D6000AEF1010EA6FB0C584FF000074FF0000516
:103D7000E6FB0E87A1FB08C6A0FB07CE16EB0E06DE
:103D800045F10005E1FB076515F1E04E7EBFA4F5A6
:103D900080345FEA46066D4116F1800745F1000563
:103DA0004FEA17274FEA066647EA0567A6F1DE469F
:103DB000B6F1805F4FEA15251FD9384624F0010C73
:103DC00005EBC471BCF1FE6F01EB0C1102D8F0BC25
:103DD000BDE8008124425CBF01F5801E9EEAC47FDD
:103DE00002D4F0BCBDE80081244238D4F0BCA1F17B
:103DF000C041BDE8004100F0F3B94FEAD22242EAE7
:103E000043524FEAD323A7FB02864FEAD02040EA71
:103E1000415007FB03661EEA0E0F4FEAD12105FB56
:103E2000026658BFA6EB0056B6EB00564FEA520E9C
:103E30004EEAC37E18EB0E0E56EB530EBDD518EBB3
:103E400002085E417F1C55F10005B6E74FF480156E
:103E50004FF000074FF000064FF00008ADE7F0BC50
:103E60004FF0000001F1C04101F00041BDE80081C8
:103E700011EA0C1F0CEA131500D00CE013EA0C1F1A
:103E800000F025804FF00000F0BC81EA030101F052
:103E90000041BDE80081F0BCBDE8004181EA0301BA
:103EA00000F09EB9F0BCBDE8004170B500F04AF9E1
:103EB000097EFC3E00F007B881EA03014FF00000E4
:103EC00001F00041704781EA030100F089B9F0BCBC
:103ED000BDE800414FF0000021497047FFFDFBF9AC
:103EE000F7F5F4F2F0EEEDEBE9E8E6E4E3E1E0DE2D
:103EF000DDDBDAD8D7D5D4D3D1D0CFCDCCCBCAC89F
:103F0000C7C6C5C4C2C1C0BFBEBDBCBBBAB9B8B7C5
:103F1000B6B5B4B3B2B1B0AFAEADACABAAA9A8A8B8
:103F2000A7A6A5A4A3A3A2A1A09F9F9E9D9C9C9B86
:103F30009A99999897979695959493939291919031
:103F40008F8F8E8E8D8C8C8B8B8A898988888787C2
:103F50008685858484838382828181800000FF0737
:103F60000000F87F4FEA41034FEA5353A3F5806303
:103F7000D3F11E03C8BFD3F1210C0CDD4FF000427A
:103F800042EAC12242EA505232FA03FC8CEAE17C56
:103F9000ACEBE1707047102BC4BF0020704703F5F5
:103FA000787CBCF1FF3F04D06FF0004282EA210030
:103FB000704770B500F0C6F8499224800020704721
:103FC000F2E710F0004248BF4042B0FA80F310FA26
:103FD00003F10AD0C3F11D0303F580634FEA41509A
:103FE00002EB035202EBD12170474FF00000704703
:103FF000DFF848C170B51CEA111E1EBF1CEA13157C
:104000009EEA0C0F95EA0C0F00F06F8081EA030422
:1040100023EA4C134EEAD47E21EA4C1141F480117C
:1040200043F48013AE44A1FB024CA0FB0365AEF148
:104030007F7E361955EB0C05A1FB034C4CF10003B8
:10404000A0FB021C16EB0C06654153F1000309426C
:1040500018BF46F0010613F4007F0BD14FEA03317D
:104060004FEA0530340341EA155140EA16506FF02B
:1040700003020AE04FEAC3214FEAC520F40241EAF5
:10408000555140EA56506FF0020202EB2E4201EB0E
:10409000025585EACE710AD05FEA440C18BF24F0BD
:1040A000004450F1000041F1000120EAD47040F2D8
:1040B000FE7C624500D270BDA84214BF4FF0804420
:1040C0004FF04044002E08BF0024BEF1806FA8BF0F
:1040D000A1F1C041BDE8704080F282804FF0000045
:1040E00001F1C04101F0004170479EEA0C0F0CEA5B
:1040F000131518BF95EA0C0F06D04FF0000081EAA7
:10410000030E0EF0004170BD00F01CF88900013E66
:1041100000F007B800F009B84FEA430C5FEA5C5CB6
:1041200008D081EA030100F05BB84FEA410C5FEA76
:104130005C5CF6D14FF00000014970470000FF07BA
:104140000000F87F0EF1020E2EF0030E5EF8046BF5
:10415000364205D4012A43EB030515F5001F12D89A
:10416000012841EB010C1CF5001F0CD80ED14FEAC1
:10417000D17C15F5001F0CEB4C0C0CF1020C08BFA8
:104180004CEBD37C04E04FF0080C01E04FEAD37C09
:104190000CEB4C0526FA05F606F00706B6F1040C02
:1041A00006D20EEB860CBDE870404CF0010C604767
:1041B000DFE80CF0090B02024FF000414FF0000065
:1041C000A1F5002170BD19461046012851EB0104EC
:1041D00018BFD4F5001484BF002001F0004170BD69
:1041E0000808A0F500114FEA3101704710B591EAB7
:1041F000030F48BF83F000433FF5BCAC841A71EB5A
:10420000030C07D212198CF0004C43EB0C03001B7B
:1042100061EB0C01DFF8A4E14FEA1154A4EB135C4D
:104220001EEA430F18BF9EEA445F00F0B08023EA05
:104230006E03524221EA0451C3EB6E0338BF5B1E8A
:10424000DCF1200E25D322FA0CFE10EB0E0043FA0F
:104250000CFE41EB0E01CCF1200E03FA0EFE10EB2A
:104260000E0051F10001CCF1200E29D412FA0EF209
:1042700001EB0451BDE8104058BF7047401C1CBF03
:10428000B2F1004F704700280CBF491C20F001001C
:10429000704712EB020E43EB030218BF4FF0010E02
:1042A0004EEA4202ACF1200CDCF11E0E54D943FA66
:1042B0000CFE10EB0E0051F1FF31CCF11E0ED5D5E6
:1042C0000EF1010E12FA0EFE404141EB010101EB2D
:1042D000445C5FEA5C5C10D910EBDE7001EB0451CA
:1042E00038BFBEF1004FBDE8104018BF704700282E
:1042F0000CBF491C20F00100704730D24FEAD42C8B
:1043000011F5001124F400641BD0B1FA81F20B3ACC
:10431000A41AA41ED2F12003914030FA03F31943EA
:10432000904001EBCC71002C01EB0451BDE8104032
:10433000A8BF704701F1C0414FF0000001F00041FB
:104340007047B0FA80F310FA03F100D110BDE41AFF
:10435000173C4805C90AE4E701EB045110BD4910B8
:1043600001EB0451BDE810404FEA300002E04FF08D
:10437000000170474A0008BF0042F8D0B2F5001FA4
:1043800028BF704701F000414FF0000070479EEADF
:10439000445F07D011EA5E0FBDE8104004BF002162
:1043A00000207047BDE8104070B5FFF7CBFE00BF9E
:1043B00040DFF63E83F00041104670470000E0FF0A
:1043C00043004FEAD30C4FEA3C0C43401FBF400769
:1043D0000CF1605113F0FE4F70471CF0006F03D1D9
:1043E00000200CF0004170470CF0004343EA50708D
:1043F00010B540EACC0000F08AF900BF000000923E
:104400004FEA0001FFF7ECBE4FF000414FF0000013
:10441000A1F50021704700004FF47F0C1CEAD01278
:104420001EBF1CEAD11392EA0C0F93EA0C0F00F0A6
:10443000858090EA010F48BF42F4807240F4000C7E
:1044400041F400002CF07F4120F07F4000B5814214
:10445000A2EB03020FF2081CACEB504EC0F10000BF
:104460009EF800E04FEA4E0E00FB0EFC38BF4900FC
:104470004FEA2C1C02F5FA020CFB0EF34FEACE1E9B
:104480004FEA112C4FEAC1210EEB635E42EB224250
:104490000EFB0CFC4FEA1C5300FB03114FEA112CDE
:1044A0004FEA01310EFB0CFC4FEADC4C00FB0C1117
:1044B000C14228BF09184CEB03335DF804EB10EB45
:1044C000410143EBC250B2F57C0F38BF704729D58C
:1044D00012F0F00F1CBF00F1C04000F00040704728
:1044E000008182838485868788898B8C8D8E8F91CD
:1044F0009293959697999A9C9D9FA0A2A3A5A7A8F1
:10450000AAACAEB0B2B3B5B7B9BCBEC0C2C5C7C91C
:10451000CCCED1D4D7D9DCDFE2E6E9ECF0F3F7FA80
:10452000FE0000004FEA400C0CF1807CBCF17E4F95
:1045300028BF7047B0F1C04000F02FB990EA010FDA
:104540000CEAD11348BF42F48072624538BF63451C
:1045500007D213F47F0F16D080EA010000F000406C
:10456000704710B500F0D3F8097EFC3E00F005B8A6
:1045700080EA010000F00040704780EA010000F08E
:10458000004000F00AB912F47F0F04BF02487047E0
:1045900080EA010000F001B90000C07FC10DD1F137
:1045A0009E0206DB4FEA002343F0004323FA02F0A9
:1045B0007047004207D54FEA4001B1F1FE4F02D2E9
:1045C0004FF00000704710B500F0A1F84992248028
:1045D000002070476FEA20007047000010F0004193
:1045E00048BF4042B0FA80F310FA03F2C3F19D03D2
:1045F0000BD051EAC35101EB1220530638BF70476C
:1046000000F1010008BF20F0010070474FF47F0C5B
:104610001CEAD0121EBF1CEAD11392EA0C0F93EAD7
:104620000C0F00F0478090EA010F48BF42F48072FF
:104630004FF0004C4CEA00204CEA012102EB03024F
:10464000A0FB0113A2F50002002918BF43F00103EB
:104650005B0028BF4FEA330342EB22425FEA132C90
:104660004CEBC2502EBFBCEB436FB2F57C0F7047D2
:104670004FEA036CBCF1004F08BF20F00100B2F517
:104680007C0F38BF70470BD582F0FF0212F5803FD8
:10469000C8BF704700F1C040D8BF00F0004070476D
:1046A00000F5000C5FEA4C0C48BF7047B0F1C04009
:1046B00000F073B890EA010F0CEAD11348BF42F43E
:1046C0008072624538BF634504D280EA010000F081
:1046D0000040704710B500F01AF800BF8900013E95
:1046E00000F007B800F009B85FEA410C5FEA1C6C03
:1046F00008D080EA010000F050B85FEA400C5FEAA1
:104700001C6CF6D14FF00040A0F5800070470EF110
:10471000020E2EF0030E5EF8044B244204D44FEA3E
:104720004102B2F17F4F11D84FEA4003B3F17F4FFE
:104730000CD80ED14FEAD07CB2F17F4F0CEB4C0C71
:104740000CF1020C08BF4CEBD17C04E04FF0080CDC
:1047500001E04FEAD17C0CEB4C0324FA03F404F0A3
:104760000704B4F1040C06D20EEB840CBDE8104033
:104770004CF0010C6047DFE80CF0070802024FF034
:104780000040A0F5800010BD0846420018BFD2F1DD
:10479000807288BF00F0004010BDFF2141EAD05078
:1047A000C0057047001001400A00000000100140E1
:1047B0000B000000001001400C0000000010014040
:1047C0000000000000100140010000000010014046
:1047D000020000000010014003000000040000007F
:1047E000AAAA11110302000000000000000000004E
:1047F00000000000144800080000002048020000EB
:104800008C010008E048000848020020587E0000A3
:10481000E80100085182012909790D0113031AB03A
:10482000BE13F1274A08447A010C1A0202690C1AD5
:104830000302690C1A0402690C1A0502690C1A06B3
:1048400002690C1A0702690C1A0802690C321E1A56
:10485000E10C130D2F1B081F6C290C411A206C69E9
:104860000C1A326C69241A336C690C1A346C690C9A
:104870001A356C690C1A366C690C1A3743690C12BC
:10488000387A090C12397A0A0C123A7A0B0C123B5C
:104890007A0C0C23E703135D281B08250C1AE80C7F
:1048A0001A510C411AE90C5A450C1AEA0C5A750CAB
:1048B0001AEB0C5A690C1AEC0C5A010C7CED030132
:1048C0000C7CEE03020C7CEF03030C3193127A0094
:1048D000092001020304060708091AAA010154006D
:04000005080001519D
:00000001FF
